:020000040000FA
:02000000FE2FD1
:100DC800F401F501701CE92EEA2EF02E7208F407E2
:100DD8000318F50A7308F50701300310F20DF30D37
:100DE800FF3E031DF12E01300310F10CF00CFF3E05
:100DF800031DF82E70087104031D032F042FE62E1F
:100E08007508F1007408F0000800831203138E01BE
:100E18008F0106141030F800F80B102F0000831211
:100E2800031306101B2F00308F0001308E00861C24
:100E38001E2F1F2F172F222F8E018F018618252F67
:100E4800262F202F0F08F1000E08F0000030F200C6
:100E5800F300E4267108FA007008F9007A08F70030
:100E68007908F60008008316031386120612861105
:100E78000611061086148312031310109010101216
:100E88009012053083120313A0000030A100092737
:100E9800770883120313A3007608A200952783120C
:100EA80003132108FD002008FC0086120612861193
:100EB80006117C037D04031D622F632F742F061512
:100EC800023083120313AA004530A900A930A800F4
:100ED800A80B6C2FA90B6C2FAA0B6C2F0000452FA9
:100EE80002307C067D04031D7A2F7B2F7D2F86150B
:100EF800642F03307C067D04031D832F842F862FE7
:100F08000616642F04307C067D04031D8C2F8D2F5C
:100F18008F2F8616642F8612061286110611452F0A
:100F2800002883120313A501A11F9B2F9C2FA32F19
:100F3800A009A109A00A0319A10AA501A50AA31FCE
:100F4800A62FA72FB02FA209A309A20A0319A30A43
:100F58000130FB007B08A506A601A7012008210493
:100F68000319B72FB82FEF2FA401A40AC62F0130F9
:100F78000310A00DA10DFF3E031DBC2F0130FB0087
:100F88007B08A407A11FC92FCA2FBB2F013003104C
:100F9800A60DA70DFF3E031DCB2F21082302031D1D
:100FA800D72F20082202031CDA2FDB2FE22F20087C
:100FB800A2022108031CA303A30226140130031074
:100FC800A10CA00CFF3E031DE32F0130A402031D5A
:100FD800EE2FEF2FCA2F25080319F32FF42FF92F1F
:100FE800A609A709A60A0319A70A2708A10026081F
:080FF800A00008008301372F5F
:02400E002AFF87
:00000001FF
